{
    "contractName": "NFTToken",
    "abi": [
        {
            "anonymous": false,
            "inputs": [
                {
                    "indexed": true,
                    "internalType": "address",
                    "name": "_to",
                    "type": "address"
                },
                {
                    "indexed": true,
                    "internalType": "uint256",
                    "name": "_tokenId",
                    "type": "uint256"
                },
                {
                    "indexed": false,
                    "internalType": "bytes32",
                    "name": "_ipfsHash",
                    "type": "bytes32"
                }
            ],
            "name": "Mint",
            "type": "event"
        },
        {
            "anonymous": false,
            "inputs": [
                {
                    "indexed": true,
                    "internalType": "address",
                    "name": "_to",
                    "type": "address"
                },
                {
                    "indexed": true,
                    "internalType": "uint256",
                    "name": "_tokenId",
                    "type": "uint256"
                },
                {
                    "indexed": true,
                    "internalType": "string",
                    "name": "uri",
                    "type": "string"
                }
            ],
            "name": "MintUri",
            "type": "event"
        },
        {
            "anonymous": false,
            "inputs": [
                {
                    "indexed": false,
                    "internalType": "address",
                    "name": "_from",
                    "type": "address"
                },
                {
                    "indexed": false,
                    "internalType": "address",
                    "name": "_to",
                    "type": "address"
                },
                {
                    "indexed": false,
                    "internalType": "uint256",
                    "name": "_tokenId",
                    "type": "uint256"
                }
            ],
            "name": "SAFETransferFrom",
            "type": "event"
        },
        {
            "anonymous": false,
            "inputs": [
                {
                    "indexed": true,
                    "internalType": "address",
                    "name": "_from",
                    "type": "address"
                },
                {
                    "indexed": true,
                    "internalType": "address",
                    "name": "_to",
                    "type": "address"
                },
                {
                    "indexed": true,
                    "internalType": "uint256",
                    "name": "_tokenId",
                    "type": "uint256"
                }
            ],
            "name": "Transfer",
            "type": "event"
        },
        {
            "inputs": [
                {
                    "internalType": "address",
                    "name": "_to",
                    "type": "address"
                },
                {
                    "internalType": "bytes32",
                    "name": "_ipfsHash",
                    "type": "bytes32"
                }
            ],
            "name": "mint",
            "outputs": [],
            "stateMutability": "nonpayable",
            "type": "function"
        },
        {
            "inputs": [
                {
                    "internalType": "address",
                    "name": "_to",
                    "type": "address"
                },
                {
                    "internalType": "string",
                    "name": "_uri",
                    "type": "string"
                }
            ],
            "name": "mint",
            "outputs": [],
            "stateMutability": "nonpayable",
            "type": "function"
        },
        {
            "inputs": [
                {
                    "internalType": "address",
                    "name": "_from",
                    "type": "address"
                },
                {
                    "internalType": "address",
                    "name": "_to",
                    "type": "address"
                },
                {
                    "internalType": "uint256",
                    "name": "_tokenId",
                    "type": "uint256"
                },
                {
                    "internalType": "bytes32",
                    "name": "_hash",
                    "type": "bytes32"
                }
            ],
            "name": "safeTransferFrom",
            "outputs": [
                {
                    "internalType": "bytes32",
                    "name": "hash",
                    "type": "bytes32"
                }
            ],
            "stateMutability": "payable",
            "type": "function"
        },
        {
            "inputs": [
                {
                    "internalType": "address",
                    "name": "_to",
                    "type": "address"
                },
                {
                    "internalType": "uint256",
                    "name": "_tokenId",
                    "type": "uint256"
                }
            ],
            "name": "transfer",
            "outputs": [],
            "stateMutability": "nonpayable",
            "type": "function"
        }
    ],
    "bytecode": "6080604052600160005534801561001557600080fd5b5061050d806100256000396000f3fe60806040526004361061003f5760003560e01c80632cfd30051461004457806367930a2a14610066578063a9059cbb1461008b578063d0def521146100ab575b600080fd5b34801561005057600080fd5b5061006461005f366004610371565b6100cb565b005b61007961007436600461032f565b610150565b60405190815260200160405180910390f35b34801561009757600080fd5b506100646100a6366004610371565b61020b565b3480156100b757600080fd5b506100646100c636600461039b565b610287565b6000805480825260016020526040822080546001600160a01b0319166001600160a01b038616179055815490918061010283610498565b919050555080836001600160a01b03167f3dec94b8abc8f801eaade1616d3aadd3114b556a284267905e0a053b2df398928460405161014391815260200190565b60405180910390a3505050565b6000828152600160205260408120546001600160a01b0316331461017357600080fd5b6000838152600160205260409020546001600160a01b0386811691161461019957600080fd5b60008381526001602090815260409182902080546001600160a01b0319166001600160a01b0388169081179091558251338152918201529081018490527fe66f76795a785f41fbd0327790f8d915b8636337de5d5a2eb65df37507f395169060600160405180910390a1509392505050565b6000818152600160205260409020546001600160a01b0316331461022e57600080fd5b60008181526001602052604080822080546001600160a01b0319166001600160a01b0386169081179091559051839233917fddf252ad1be2c89b69c2b068fc378daa952ba7f163c4a11628f55a4df523b3ef9190a45050565b6000805480825260016020526040822080546001600160a01b0319166001600160a01b03861617905581549091806102be83610498565b9190505550816040516102d1919061045d565b6040519081900381209082906001600160a01b038616907f767a2e3c7a575e6332bd67ed8d2d685e366702eac40e0cefe1b949d6cde1274490600090a4505050565b80356001600160a01b038116811461032a57600080fd5b919050565b6000806000806080858703121561034557600080fd5b61034e85610313565b935061035c60208601610313565b93969395505050506040820135916060013590565b6000806040838503121561038457600080fd5b61038d83610313565b946020939093013593505050565b600080604083850312156103ae57600080fd5b6103b783610313565b9150602083013567ffffffffffffffff808211156103d457600080fd5b818501915085601f8301126103e857600080fd5b8135818111156103fa576103fa6104c1565b604051601f8201601f19908116603f01168101908382118183101715610422576104226104c1565b8160405282815288602084870101111561043b57600080fd5b8260208601602083013760006020848301015280955050505050509250929050565b6000825160005b8181101561047e5760208186018101518583015201610464565b8181111561048d576000828501525b509190910192915050565b60006000198214156104ba57634e487b7160e01b600052601160045260246000fd5b5060010190565b634e487b7160e01b600052604160045260246000fdfea2646970667358221220a7ae96c6874d1900350782b5ada616c815dd8656c3289d09ec349d243d72bdc364736f6c63430008060033",
    "sourcePath": "/Users/hemang/Dropbox/dapp/nft.sol",
    "compiler": {
        "name": "solc",
        "version": "0.8.6+commit.11564f7e"
    },
    "functionHashes": {
        "mint(address,bytes32)": "2cfd3005",
        "mint(address,string)": "d0def521",
        "safeTransferFrom(address,address,uint256,bytes32)": "67930a2a",
        "transfer(address,uint256)": "a9059cbb"
    },
    "gasEstimates": {
        "creation": {
            "codeDepositCost": "258600",
            "executionCost": "22406",
            "totalCost": "281006"
        },
        "external": {
            "mint(address,bytes32)": "52868",
            "mint(address,string)": "infinite",
            "safeTransferFrom(address,address,uint256,bytes32)": "infinite",
            "transfer(address,uint256)": "28788"
        }
    }
}